:020000040800F2
:10000000A81800209D010008F92F00082D290008DC
:10001000F52F0008930A00080D39000800000000C1
:1000200000000000000000000000000005010008C2
:10003000A90A000800000000490100084132000838
:10004000B7010008B7010008B7010008B7010008B0
:10005000B7010008B7010008B7010008B7010008A0
:10006000B7010008B7010008B7010008B701000890
:10007000B7010008B7010008B7010008990A000895
:10008000B7010008B7010008B7010008B701000870
:10009000B7010008B7010008B7010008B701000860
:1000A000B7010008B7010008B7010008B701000850
:1000B000B7010008B701000851330008B701000874
:1000C000B7010008B7010008B7010008B701000830
:1000D000B7010008ED380008FD380008B701000836
:1000E000B7010008B7010008B7010008DFF810D019
:1000F00000F094FC0048004767470008AFF3008019
:10010000A8180020224B19680868B0E8F00F80F3A7
:100110000988BFF36F8F4FF0000080F311884EF015
:100120000D0E70470000000006480068006880F36C
:10013000088862B661B6BFF34F8FBFF36F8F00DFE1
:1001400000BF00BF08ED00E0EFF30980BFF36F8F41
:100150000F4B1A6820E9F00F106008B54FF05000FF
:1001600080F31188BFF34F8FBFF36F8F04F0DCFC77
:100170004FF0000080F31188BDE808401968086856
:10018000B0E8F00F80F30988BFF36F8F704700BFAE
:1001900024000020EFF305807047000006488047E8
:1001A00006480047FEE7FEE7FEE7FEE7FEE7FEE75C
:1001B000FEE7FEE7FEE7FEE7F9320008ED00000883
:1001C000202A04DB203A21FA02F00021704721FAAC
:1001D00002F3D040C2F12002914008431946704713
:1001E000D2B201E000F8012B491EFBD27047002279
:1001F000F6E710B513460A4604461946FFF7F0FF26
:10020000204610BDF0B480EA0102D40F4200B2EBE8
:10021000410F02D20246084611464A0042D0C30DA1
:10022000DDB2C1F3C752AD1A202D35DAC1F3160184
:1002300041F4000204B15242C5F1200602FA06F16F
:100240002A411044B3EBD05F23D0C4B1012DA0EB01
:10025000C35009DCF0BC4FF0004202EAC352DBB2EB
:1002600000F5000000F037BB400000F1807000EBAB
:10027000C350A0F1807040EAD170490009E04908FC
:1002800041EAC071A0EBC35000F50000400800EB4C
:10029000C350F0BC00F016BB6142012202EB4101E9
:1002A000001BF6E7F0BC704781F00041AAE780F040
:1002B0000040A7E780EA010210B502F000434000C9
:1002C00022D04A001FD0010E01EB1261C0F356008C
:1002D000C2F3560240F4000042F40002A0FB0220E8
:1002E00000047F39140400D0401C50EA124001D4AD
:1002F0004000491EC2B20C0604EBD010401C40085E
:10030000802A02D003E0002010BD20F00100002967
:1003100000DA0020184310BD30B480EA010202F078
:10032000004530F0004221F0004013D090B1C30DE1
:10033000D40DC2F31601C0F31600E41A41F4000113
:1003400040F400027D34914201D3641C00E0490076
:10035000002C02DA30BC002070474FF4000000236C
:10036000914201D3891A034340084FEA4101F7D172
:1003700051B1914202D14FF0004105E002D24FF05D
:10038000010101E06FF0010103EBC450284430BCCF
:1003900000F098BA2DE9FE4F804681EA0300C00FB5
:1003A0000C46009021F0004123F00045B8EB02001C
:1003B000A94105D24046214690461C460B460246BE
:1003C00023F00040104347D0270DC7F30A00C3F3C2
:1003D0000A510290401A019040286BDAC3F31300CF
:1003E00040F4801B0098924620B10023D2EB030A10
:1003F00063EB0B0B01985946C0F14002504600F0E8
:1004000040FA06460D4650465946019A00F048FA11
:1004100010EB08006141002487EA115284EAE77377
:100420001A4340D0009A62B3019A012A4FEA075258
:1004300015DC001B61EB02014FF0004202EA07529B
:10044000CDE90042001C41F5801132462B4600F0F8
:100450007FFA03B0BDE8F08F40462146F9E7001B64
:1004600061EB0201001C41F5801300185B4120186C
:10047000A2F5001747EB030140EAD570B6196D41AC
:1004800011E06D084FEA360645EAC0754FEA07529B
:10049000001B61EB0201001C41F5801149084FEA85
:1004A00030000019514132462B4603B0BDE8F04FF1
:1004B00000F03FBA0098012240000023D0EB020276
:1004C00063EBE073009821464FEAE074B8EB00005C
:1004D00061EB0401E9E783F000435BE781F0004151
:1004E00058E72DE9FE4F81EA030404F0004421F0AF
:1004F000004100944FF0000B23F0004350EA010448
:100500005ED052EA03045BD0C3F30A54C1F30A5528
:100510002C44A4F2F3340194A0FB0254C1F3130160
:1005200041F48011C3F3130343F4801301FB02442D
:1005300000FB034E840A970A44EA815447EA835732
:10054000A4FB076802958D0A05FB07854FEA932CEB
:1005500004FB0C542705029D4FEA065847EA16375C
:10056000B5EB08056EEB070C870E920E47EA811774
:1005700042EA8312A7FB0201B6EB0B0164EB000415
:100580002B0D43EA0C335E1844EB1C50DA465146FF
:10059000E7FB0201C5F313044FEA0B3343EA14539C
:1005A0004FEA0432019C43EA0603A4F10C040294CE
:1005B000009CCDE900B400F0CBF903B0BDE8F08FAA
:1005C00000200146F9E72DE9F04D81EA030404F02B
:1005D000004B21F0004514464FF0000A23F0004183
:1005E00050EA050220D054EA01021DD0C5F30A5793
:1005F0000246C5F31303C1F31300C1F30A5640F4D6
:10060000801543F48013A7EB0608101BD64608F2AA
:10061000FD3873EB050002D308F1010801E09218E0
:100620005B41B8F1000F03DA00200146BDE8F08D10
:1006300000204FF48011064684460EE0171B73EB32
:10064000050705D3121B63EB050306434CEA010CB7
:1006500049084FEA300092185B4150EA0107EDD19A
:1006600052EA030012D082EA040083EA050108433B
:1006700005D0101BAB4106D20122002306E0002268
:100680004FF0004302E06FF0010253101AEB060036
:100690004CEB085110EB0A0041EB0B01BDE8F04DAB
:1006A00000F047B9C10F80EAE0700844CA079623FA
:1006B000002100F010B996230022114600F00BB97A
:1006C0000EB5C10F80EAE0700844CA07002140F26D
:1006D00033438DE80E000A460B4600F039F903B0AB
:1006E00000BD00F0004220F00040C10DC0F3160034
:1006F00040F400007F2901DA00207047962903DCCE
:10070000C1F19601C84001E096398840002AF4D032
:100710004042704720F00040C10DC0F3160040F485
:1007200000007F2901DA00207047962903DCC1F11F
:100730009601C840704796398840704700F00042E3
:1007400030F000400AD0C10D01F56071C0F3160011
:1007500042EA0151C2084007114370470020014698
:100760007047000030B5041E71F1000404DB4FF047
:100770000044404264EB0101141E73F1000405DBE8
:100780001C464FF00043524263EB0403994208BFFA
:10079000904230BD01F0004330B421F0004150EAF6
:1007A000010206D00A0DA2F56072C1F31301002AFE
:1007B00002DC30BC00207047440F44EAC104C10091
:1007C000E01830BC00EBC25000F07CB8002801DB20
:1007D000C0F10040002901DBC1F1004181427047B6
:1007E000002801DBC0F10040002901DBC1F100411C
:1007F0008842704730B50B46014600202022012474
:1008000009E021FA02F59D4205D303FA02F5491BDE
:1008100004FA02F52844151EA2F10102F1DC30BDF4
:100820002DE9F05F0546002092469B468846064625
:10083000814640241BE02846414647462246FFF7B2
:10084000BFFC53465A46C01A914110D31146184670
:10085000224600F016F82D1A67EB01084F46224693
:100860000120002100F00DF817EB00094E41201E79
:10087000A4F10104DFDC484631462A464346BDE880
:10088000F09F202A04DB203A00FA02F10020704792
:100890009140C2F1200320FA03F3194390407047BE
:1008A000202A06DBCB17203A41FA02F043EAE07334
:1008B00006E041FA02F3D040C2F120029140084321
:1008C000194670470029A8BF7047401C490008BF5F
:1008D00020F00100704710B4B0FA80FC00FA0CF070
:1008E00050EA010404BF10BC704749B1CCF12004A8
:1008F00021FA04F411FA0CF118BF01212143084335
:10090000A3EB0C01CB1D4FEA00614FEA102042BF60
:10091000002010BC704700EBC35010440029A4BF56
:1009200010BC7047401C490008BF20F0010010BCFB
:10093000704710B5141E73F1000408DA401C41F131
:10094000000192185B411A4301D120F0010010BD53
:100950002DE9F04D92469B4611B1B1FA81F202E0C9
:10096000B0FA80F220329046FFF78BFF04460F4624
:1009700040EA0A0041EA0B0153465A46084313D0A5
:10098000114653EA010019D0C8F140025046FFF762
:1009900017FC05460E46504659464246FFF771FF82
:1009A000084305D0012004E020463946BDE8F08D1B
:1009B0000020054346EAE0762C4337430A98630556
:1009C000E40AA0EB08000022FD0A44EA47540A307A
:1009D00002D500200146E9E7010510196941DDE96A
:1009E000084500196941BDE8F04DA2E7C1F30A527C
:1009F000C1F3130140F2FF3341F480119A4202DA4D
:100A000000200146704740F233439A42A2F233423B
:100A100002DC5242FFF7D4BBFFF733BF064C074D51
:100A200006E0E06840F0010394E8070098471034BE
:100A3000AC42F6D3FFF75EFBB05A0008D05A00086C
:100A400070B5044600252068806800F00100F0B110
:100A50002068806820F001002168886000F058FD5F
:100A600005460EE000F054FD401B022809D9A06A9B
:100A700040F01000A062E06A40F00100E062012056
:100A800070BD2068806800F001000028EAD10020D5
:100A9000F6E700BFFEE7000010B5024800F098FA44
:100AA00010BD0000A00A0020704700BFFEE7000054
:100AB0002DE9F84F0446884693469A46DDF828907B
:100AC000009440E099F8000080283CDA99F8007022
:100AD0000D2F05D1009C08F110001FFA80F830E0BE
:100AE000202F03DDA7F1200087B200E000270025BA
:100AF00022E000261CE005EB07101649095C802067
:100B00003041014041B108EB050291B2A21990B207
:100B10005A4602F073FA09E0D34507D008EB050204
:100B200091B2A21990B2524602F068FA701CC6B295
:100B3000082EE0DB681CC5B2102DDADB04F10800DA
:100B400084B209F1010999F800000028BAD1BDE882
:100B5000F88F0000FC4C00082DE9FF4F83B0804661
:100B600089460598A0EB08050698A0EB0906002D1C
:100B700002DB0120029003E04FF0FF3002906D4253
:100B8000002E02DB0120019003E04FF0FF300190C6
:100B900076424FEA450A4FEA460BB54219DDABEB08
:100BA0000504002712E049464046109A02F026FA52
:100BB000002C05DBA4EB0A04019848441FFA80F9D5
:100BC0005C44029840441FFA80F87F1CAF42EADD83
:100BD00018E0AAEB0604002712E049464046109AA6
:100BE00002F00CFA002C05DBA4EB0B040298404445
:100BF0001FFA80F85444019848441FFA80F97F1C7A
:100C0000B742EADD07B0BDE8F08F000038B5024614
:100C100000230020009000BF92F82400012801D199
:100C2000022038BD012082F8240000BF4868072850
:100C300012D21068406B0C79641E04EB84051F24EB
:100C4000AC40A0430D796D1E05EB85050C68AC40EA
:100C500020431468606327E048680D2812D21068AA
:100C6000006B0C79E41F04EB84051F24AC40A04307
:100C70000D79ED1F05EB85050C68AC402043146829
:100C8000206311E01068C06A0C790D3C04EB840508
:100C90001F24AC40A0430D790D3D05EB85050C6884
:100CA000AC4020431468E06208680A2812D3106838
:100CB000C0680C780A3C04EB44050724AC40A04310
:100CC0000D780A3D05EB45058C68AC40204314685F
:100CD000E0600FE0106800690C7804EB440507241D
:100CE000AC40A0430D7805EB45058C68AC40204333
:100CF000146820610868102802D00868112827D1DC
:100D0000174C1068A0421ED11068806800F40000E3
:100D1000F0B91068806840F400001468A0600868AA
:100D2000102815D10F4800680F4CB0FBF4F000EB11
:100D300080004000009002E00098401E0090009863
:100D40000028F9D104E0906A40F02000906201236D
:100D500000BF002082F8240000BF184661E70000B1
:100D6000002401407000002040420F002DE9F041B6
:100D70000446002700250026A84614B90120BDE836
:100D8000F081A06810B1207D00B100BFA06A30B929
:100D90000020E06284F82400204600F089F8204614
:100DA000FFF74EFE0746A06A00F01000002873D13E
:100DB000002F71D1A06A20F4885040F00200A06298
:100DC000E16960680843217B40EA41000643A0686E
:100DD000B0F5807F02D0A068012802D14FF4807066
:100DE00000E000200543207D012811D1207B38B987
:100DF000A069401E4FF4006141EA4030054307E01E
:100E0000A06A40F02000A062E06A40F00100E062C9
:100E10002068406820F469402843216848602068C1
:100E2000806821490840304321688860A068B0F597
:100E3000807F02D0A068012802D14FF4807000E0CA
:100E40000020B0F5807F03D1208A401E4FEA005871
:100E50002068C06A20F4700040EA08002168C86277
:100E60002068806811490840B04208D10020E06243
:100E7000A06A20F0020040F00100A06211E0A06A28
:100E800020F0020040F01000A062E06A40F0010093
:100E9000E062012705E0FFE7A06A40F01000A062D1
:100EA000012738466BE70000FDF7E1FFFE0E1FFF4C
:100EB00010B586B00446002002900390049005907F
:100EC00014492068884222D100BF1348806940F449
:100ED0000070114988610846806900F40070019033
:100EE00000BF00BF00BF0846806940F00400886171
:100EF0000846806900F00400019000BF00BF302068
:100F000002900320039002A9044800F063F906B0A0
:100F100010BD000000240140001002400008014004
:100F200070B50446002594F82100022803D004205F
:100F3000A063012548E02068006820F00E002168C9
:100F400008602068006820F00100216808601F49DF
:100F50002068884201D1012026E01C491431206814
:100F6000884201D110201FE01849283120688842AA
:100F700001D1801518E015493C312068884201D123
:100F8000801411E0114950312068884202D14FF499
:100F9000803009E00D4964312068884202D14FF465
:100FA000801001E04FF08070084908394860012046
:100FB00084F8210000BF002084F8200000BF606B8F
:100FC00010B12046616B8847284670BD080002407A
:100FD00070B50446E06B05682068066894F8401018
:100FE000042088402840002846D006F0040000284D
:100FF00042D02068006800F0200028B9206800680E
:1010000020F004002168086057492068884201D117
:10101000042027E0544914312068884201D140203F
:1010200020E0514928312068884201D1001519E09B
:101030004D493C312068884202D14FF4804011E094
:10104000494950312068884202D14FF4802009E09C
:10105000454964312068884202D14FF4800001E0A4
:101060004FF08060404908394860E06A00287AD033
:101070002046E16A884776E094F8401002208840D4
:101080002840A0B306F0020088B32068006800F092
:10109000200040B92068006820F00A00216808603C
:1010A000012084F8210030492068884201D10220C3
:1010B00028E02D4914312068884201D1202021E008
:1010C000294928312068884201D140151AE0264973
:1010D0003C312068884202D14FF4005012E022498E
:1010E00050312068884203D14FF400300AE017E005
:1010F0001D4964312068884202D14FF4001001E09C
:101100004FF0007018490839486000BF002084F88B
:10111000200000BFA06A30B32046A16A884722E0C1
:1011200094F84010082088402840E0B106F00800FC
:10113000C8B12068006820F00E002168086094F8AB
:10114000401001208840E16B48600120A06384F8D2
:10115000210000BF002084F8200000BF206B10B1E8
:101160002046216B884770BD0800024001460022DE
:1011700009B901207047164B0868C01A1423B0FB48
:10118000F3F08000086412480838C863022081F830
:1011900021000868026843F6F0708243D1E9010338
:1011A0001843CB6818430B6918434B6918438B6984
:1011B0001843CB6918430243086802600020886323
:1011C000012081F82100002081F8200000BFD1E734
:1011D000080002402DE9F8470346002294466EE1DC
:1011E0004FF0010808FA02F4D1F8008008EA040080
:1011F000A0427DD1DFF8DCA2D1F80480A8EB0A0977
:10120000D0453AD014DCB8F1030F50D009DCB8F166
:10121000000F31D0B8F1010F1CD0B8F1020F49D145
:1012200020E0B8F1110F18D0B8F1120F42D11EE032
:10123000B9F5881F25D006DCB9F5803F20D0B9F577
:10124000801F37D11AE0B9F5001F18D0B9F5041F77
:1012500030D117E0D1F80CC02DE0D1F80C8008F1A6
:10126000040C28E0D1F80C8008F1080C23E0D1F838
:101270000C8008F10C0C1EE000BF00BF00BF00BFD7
:1012800000BF00BFD1F80880B8F1000F02D14FF0C5
:10129000040C0BE0D1F80880B8F1010F03D14FF036
:1012A000080C1C6102E04FF0080C5C6103E04FF099
:1012B000000C00E000BF00BFFF2801D8984601E005
:1012C00003F104084646FF2802D84FEA820803E0EB
:1012D000A2F108084FEA88084746D6F800804FF088
:1012E0000F0909FA07F928EA09080CFA07F900E0DA
:1012F00088E048EA0908C6F80080D1F8048008F0C0
:101300008058B8F1805F7DD100BFDFF8CC81D8F87C
:10131000188048F00108DFF8C091C9F81880C84665
:10132000D8F8188008F00108CDF8008000BF00BF91
:101330004FEAB9384FEA920958F829504FEA8278B3
:101340004FEA18794FF00F0808FA09F825EA08055E
:10135000DFF88881434502D14FF0000816E0DFF83E
:101360008081434502D14FF001080FE0DFF874811E
:10137000434502D14FF0020808E0DFF86C81434595
:1013800002D14FF0030801E04FF004084FEA8279E0
:101390004FEA197908FA09F848EA0505DFF84C819F
:1013A0004FEA920948F82950D1F8048008F48038AF
:1013B000B8F5803F0AD1DFF83881D8F8008048EAD4
:1013C0000008DFF82C91C9F8008009E0DFF82081DF
:1013D000D8F8008028EA0008DFF81491C9F80080E6
:1013E000D1F8048008F40038B8F5003F10D1DFF8D8
:1013F000008108F10408D8F8008048EA0008DFF806
:10140000F09000E05AE009F10409C9F800800DE00D
:10141000DFF8DC8008F10408D8F8008028EA00082A
:10142000DFF8CC9009F10409C9F80080D1F80480F4
:1014300008F48018B8F5801F0ED1DFF8B48008F1E9
:101440000808D8F8008048EA0008DFF8A49009F1FD
:101450000809C9F800800DE0DFF8948008F1080859
:10146000D8F8008028EA0008DFF8849009F108091C
:10147000C9F80080D1F8048008F40018B8F5001FFE
:101480000ED1DFF86C8008F10C08D8F8008048EA2B
:101490000008DFF85C9009F10C09C9F800800DE044
:1014A000DFF84C8008F10C08D8F8008028EA000822
:1014B000DFF83C9009F10C09C9F80080521CD1F802
:1014C000008028FA02F8B8F1000F7FF489AEBDE879
:1014D000F8870000000011100010024000080140D1
:1014E000000C0140001001400014014008000140C0
:1014F00000040140024693680B400BB1012000E05C
:10150000002070470AB1016101E00B0403617047DC
:10151000014800687047000064000020034800682C
:1015200003490978084401490860704764000020B5
:101530006C00002010B50848006840F01000064913
:101540000860032000F0CCF8002000F007F800F05D
:1015500049F8002010BD00000020024070B588B09E
:10156000044600250026002221461E2000F07AF8BD
:101570001E2000F067F800BF1648C06940F0040064
:101580001449C8610846C06900F00400019000BF1A
:1015900000BF02A903A800F015FA00F03BFA4500CD
:1015A0000D48B5FBF0F0461E0C480D49086040F2AE
:1015B000E7310B48C160466000210161816000F0A5
:1015C0008FFD20B9064800F0BBFD08B070BD0120BA
:1015D000FBE700000010024040420F0000080040FE
:1015E000E40A002008B500BF1448806940F00100FB
:1015F000124988610846806900F00100009000BF30
:1016000000BF00BF0846C06940F08050C86108466E
:10161000C06900F08050009000BF00BF00220F2181
:10162000901E00F01FF800BF0549486820F0E060F8
:1016300040F00070486000BF08BD0000001002408C
:101640000000014001460846002809DB00F01F03A6
:1016500001229A4043099B0003F1E023C3F80021D3
:1016600000BF70472DE9F05F80460D461646002703
:1016700002F080F9074639462A46334601F0070052
:10168000C0F1070ABAF1040F02D94FF0040A01E0D1
:10169000C0F1070AD14600F1040ABAF1070F02D2DD
:1016A0004FF0000A01E0A0F1030AD4464FF0010A0E
:1016B0000AFA09FAAAF1010A0AEA020A0AFA0CFA73
:1016C0004FF0010B0BFA0CFBABF1010B0BEA030B18
:1016D0004AEA0B042146404602F054F9BDE8F09F67
:1016E00000BF00F00702064B19684FF6FF031940D0
:1016F000044B0B4343EA0221014B196000BF7047C2
:101700000CED00E00000FA05F8B5044600260025BF
:10171000207800F0010000286BD000274348C06902
:1017200000F0805070B900BF4048C06940F0805060
:101730003E49C8610846C06900F08050009000BF73
:1017400000BF01273A48006800F48070B0B93848FB
:10175000006840F4807036490860FFF7D9FE0646FD
:1017600006E0FFF7D5FE801B642801D90320F8BDF1
:101770002F48006800F480700028F2D02B48006ADF
:1017800000F440752DB3A08800F44070A84220D02A
:101790002648006A20F44075012026490860002090
:1017A00008602248056205F0010090B1FFF7B0FE25
:1017B000064608E0FFF7ACFE801B41F28831884204
:1017C00001D90320D3E71948006A00F0020000287D
:1017D000F0D01648006A20F440706168084313494D
:1017E0000862012F04D10846C06920F08050C8610A
:1017F00000BF207800F00200022807D10B484068A3
:1018000020F44040A168084308494860207800F06F
:101810001000102807D10548406820F48000E168D6
:101820000843024948600020A1E700000010024080
:10183000007000404004424270B504460D460CB9A9
:10184000012070BD5A48006800F00700A8420ED27F
:101850005748006820F007002843554908600846AB
:10186000006800F00700A84201D00120E9E72078D5
:1018700000F0020002281DD1207800F004000428A6
:1018800005D14C48406840F4E0604A4948602078FF
:1018900000F00800082805D14648406840F4605030
:1018A000444948604348406820F0F000A16808437C
:1018B00040494860207800F0010078B36068012852
:1018C00006D13C48006800F4003090B90120B8E728
:1018D0006068022806D13748006800F0007040B9FF
:1018E0000120AEE73348006800F0020008B901208B
:1018F000A7E73048406820F00300616808432D499D
:101900004860FFF705FE064609E0FFF701FE801B71
:1019100041F28831884202D9032092E707E0254846
:10192000406800F00C006168B0EB810FEDD12048F9
:10193000006800F00700A8420ED91D48006820F09A
:10194000070028431A4908600846006800F00700AD
:10195000A84201D0012074E7207800F00400042898
:1019600007D11448406820F4E060E1680843114959
:101970004860207800F00800082808D10D48406829
:1019800020F46050216940EAC1000A49486000F033
:1019900061F808494968C1F30311074A515CC8401E
:1019A0000649086006480068FFF7D8FD002048E7B0
:1019B0000020024000100240985A000870000020E9
:1019C000680000200F2202600D4A526802F00302F4
:1019D00042600B4A526802F0F0028260084A526884
:1019E00002F4E062C260064A526802F46052D20811
:1019F0000261044A126802F007020A6070470000A0
:101A000000100240002002400148006870470000BA
:101A10007000002000B5FFF7F7FF04494968C1F3E3
:101A20000221034A515CC84000BD00000010024082
:101A3000A85A000800B5FFF7E7FF04494968C1F359
:101A4000C221034A515CC84000BD000000100240A2
:101A5000A85A0008F0B585B00FF26C0C9CE8E010B5
:101A600001A8A0E8E0101CA52D6800950021002227
:101A7000002300240020194D696801F00C05F5B120
:101A8000042D02D0082D19D101E0154819E001AD4F
:101A9000C1F38346AC5D01F4803555B10F4D6D68DF
:101AA000C5F340451DF805200D4D6543B5FBF2F328
:101AB00002E00C4D04FB05F3184602E000BF0848A5
:101AC00000BF00BF05B0F0BD02030405060708090A
:101AD0000A0B0C0D0E0F1010010200000010024046
:101AE00000127A0000093D00F8B504460CB9012047
:101AF000F8BD207800F00100002878D0F848406850
:101B000000F00C0004280CD0F548406800F00C00F0
:101B1000082811D1F248406800F48030B0F5803FC9
:101B20000AD1EF48006800F4003000285FD06068F8
:101B300000285CD10120DBE700BF6068B0F5803F82
:101B400006D1E748006840F48030E549086028E0A5
:101B5000606858B9E248006820F48030E0490860C5
:101B60000846006820F4802008601AE06068B0F53C
:101B7000A02F0BD1DA48006840F48020D8490860D3
:101B80000846006840F4803008600AE0D4480068E5
:101B900020F48030D24908600846006820F4802094
:101BA000086000BF606888B1FFF7B2FC054606E038
:101BB000FFF7AEFC401B642801D9032098E7C84812
:101BC000006800F400300028F2D010E0FFF7A0FC1D
:101BD000054606E0FFF79CFC401B642801D9032062
:101BE00086E7BF48006800F400300028F2D1207872
:101BF00000F00200022857D1B948406800F00C00FC
:101C000050B1B748406800F00C00082818D1B4481B
:101C1000406800F4803098B9B148006800F00200D4
:101C200020B12069012801D0012061E7AC4800689B
:101C300020F0F800616940EAC100A949086033E07A
:101C40002069E8B10120A7490860FFF761FC05465B
:101C500006E0FFF75DFC401B022801D9032047E79F
:101C60009F48006800F002000028F2D09C480068FD
:101C700020F0F800616940EAC1009949086013E06A
:101C8000002098490860FFF743FC054606E0FFF78F
:101C90003FFC401B022801D9032029E79048006837
:101CA00000F002000028F2D1207800F00800082897
:101CB0002DD1A069B8B101208B490860FFF728FC3D
:101CC000054606E0FFF724FC401B022801D903204B
:101CD0000EE78348406A00F002000028F2D001209D
:101CE00001F09AFA13E000207F490860FFF710FC2A
:101CF000054606E0FFF70CFC401B022801D9032033
:101D0000F6E67748406A00F002000028F2D1207819
:101D100000F00400042873D100277148C06900F066
:101D2000805070B900BF6E48C06940F080506C4967
:101D3000C8610846C06900F08050009000BF00BF35
:101D400001276A48006800F48070B0B967480068ED
:101D500040F4807065490860FFF7DAFB054606E04D
:101D6000FFF7D6FB401B642801D90320C0E65F487B
:101D7000006800F480700028F2D000BFE0680128FD
:101D800006D15748006A40F001005549086227E033
:101D9000E06858B95248006A20F0010050490862D2
:101DA0000846006A20F00400086219E0E06805288F
:101DB0000BD14B48006A40F00400494908620846CC
:101DC000006A40F0010008620AE04548006A20F01D
:101DD0000100434908620846006A20F004000862D6
:101DE00000BFE068A0B1FFF793FB054609E0FFF7ED
:101DF0008FFB401B41F28831884202D9032077E6ED
:101E000022E03748006A00F002000028EFD012E01C
:101E1000FFF77EFB054608E0FFF77AFB401B41F227
:101E20008831884201D9032062E62D48006A00F01B
:101E300002000028F0D1012F05D12948C06920F007
:101E400080502749C86100BFE069C8B32448406892
:101E500000F00C00082860D0E069022848D100207A
:101E600020490866FFF754FB054606E0FFF750FBE4
:101E7000401B022801D903203AE61948006800F007
:101E800000700028F2D1206AB0F5803F07D11448D5
:101E9000406820F40030A168084311494860D4E943
:101EA000080108430E49496821F4741108430C499C
:101EB000486001200B490866FFF72AFB054607E04A
:101EC0003DE0FFF725FB401B022801D903200FE668
:101ED0000348006800F000700028F2D02FE00000F6
:101EE0000010024000004242800442420070004064
:101EF000002014490866FFF70BFB054606E0FFF7D4
:101F000007FB401B022801D90320F1E50E480068B9
:101F100000F000700028F2D111E0E069012800D142
:101F2000E6E50948466806F48031206A814204D11A
:101F300006F47011606A814201D00120D8E50020CA
:101F4000D6E50000000042420010024010B50446F1
:101F50000CB9012010BD606A00B900BF0021A16268
:101F600094F8510028B9002084F85000204600F071
:101F700031F8022084F851002068006820F0400009
:101F800021680860D4E901010843E1680843216938
:101F9000084361690843218B01F400710843E1693A
:101FA0000843216A0843A16A0843216808600421A4
:101FB000A06901EA1040216848602068C06920F4E7
:101FC00000602168C86100206065012084F851002C
:101FD0000020BFE710B586B00446002002900390B1
:101FE0000490059023492068884240D100BF2248D0
:101FF000C06940F480402049C8610846C06900F4C7
:102000008040019000BF00BF00BF0846806940F0DB
:10201000080088610846806900F00800019000BF50
:1020200000BF4FF42040029002200390032005904F
:1020300002A91248FFF7CEF8114812490860102093
:10204000486000210F4881608021C160002101614A
:10205000416181614FF44051C161FFF787F808B1D8
:10206000FEF723FD00BF0748A064446200BF06B02E
:1020700010BD00000038004000100240000C01407C
:1020800058000240A00A00207047704710B5024671
:1020900000BF92F83C00012801D1022010BD0120B0
:1020A00082F83C0000BF022082F83D0010684368BF
:1020B0001068846823F070030868034324F08004E8
:1020C000486804431068436010688460012082F807
:1020D0003D0000BF002082F83C0000BF00BFDDE7EC
:1020E00010B504460CB9012010BD94F83D0028B984
:1020F000002084F83C00204600F00CF8022084F810
:102100003D00211D206801F02DF9012084F83D00DB
:102110000020E9E708B50168B1F1804F0DD100BF9B
:102120000649C96941F00101044AD1611146C969F2
:1021300001F00101009100BF00BF08BD0010024086
:1021400001460868C06840F001000B68D860086864
:10215000806800F00702062A05D00868006840F091
:1021600001000B681860002070472DE9F04104461B
:102170000D4600BF94F83C00012802D10220BDE8C2
:10218000F081012084F83C0000BF022084F83D006B
:102190002068866826F0770626F47F4620688660E9
:1021A0002868502833D00CDC202850D004DC0028CC
:1021B0004BD0102851D149E0302849D040284CD18B
:1021C00039E060282DD0702807D0B0F5805F03D0AB
:1021D000B0F5005F41D10DE040E0D5E902136A6837
:1021E000206801F00AF92068866846F077062068C2
:1021F000866033E0D5E902136A68206801F0FDF8D3
:102200002068806840F480402168886026E0EA68A1
:102210006968206801F0C2F95021206801F0F8F8DF
:102220001CE0EA686968206801F0CBF96021206849
:1022300001F0EEF812E0EA686968206801F0AEF992
:102240004021206801F0E4F808E000BF00BF00BFB3
:102250002968206801F0DCF800E000BF00BF012021
:1022600084F83D0000BF002084F83C0000BF00BFA0
:1022700085E7704710B5044620680069C0F3400048
:10228000D8B12068C068C0F34000B0B16FF0020060
:1022900021680861012020772068806900F0030030
:1022A00018B12046FFF7E5FF05E0204600F0FEF8F4
:1022B000204600F09BF90020207720680069C0F3D9
:1022C0008000D8B12068C068C0F38000B0B16FF062
:1022D000040021680861022020772068806900F4EA
:1022E000407018B12046FFF7C4FF05E0204600F01B
:1022F000DDF8204600F07AF9002020772068006998
:10230000C0F3C000D8B12068C068C0F3C000B0B14D
:102310006FF0080021680861042020772068C069F8
:1023200000F0030018B12046FFF7A3FF05E02046A8
:1023300000F0BCF8204600F059F900202077206812
:102340000069C0F30010D8B12068C068C0F3001065
:10235000B0B16FF010002168086108202077206874
:10236000C06900F4407018B12046FFF782FF05E015
:10237000204600F09BF8204600F038F90020207736
:102380002068006900F0010058B12068C06800F0C2
:10239000010030B16FF0010021680861204600F0B3
:1023A0004DF920680069C0F3C01058B12068C068BA
:1023B000C0F3C01030B16FF0800021680861204682
:1023C000FFF762FE20680069C0F3801058B12068F2
:1023D000C068C0F3801030B16FF040002168086120
:1023E000204600F037F920680069C0F3401058B16A
:1023F0002068C068C0F3401030B16FF02000216841
:1024000008612046FFF741FE10BD000010B586B000
:102410000446002002900390049005902068B0F1DB
:10242000804F39D100BF1D48806940F004001B492E
:1024300088610846806900F00400019000BF00BF79
:1024400000BF0846806940F008008861084680693E
:1024500000F00800019000BF00BF0320029002209E
:1024600003900320059002A90D48FEF7B3FE4FF438
:102470000060029002200390059002A90948FEF72F
:10248000A9FE00BF0849486820F4407040F0E060B1
:1024900040F40070486000BF06B010BD001002405C
:1024A00000080140000C014000000140704770B579
:1024B00004460D46164600BF94F83C00012801D1A1
:1024C000022070BD012084F83C0000BF022084F887
:1024D0003D0036B1042E1BD0082E31D00C2E5ED11B
:1024E00045E02946206800F09DFF2068806940F0A3
:1024F0000800216888612068806920F00400216854
:10250000886120688069296908432168886147E0FB
:102510002946206800F0B6FF2068806940F400601A
:10252000216888612068806920F480602168886162
:1025300020688069296940EA0120216888612FE0CC
:102540002946206800F0D2FF2068C06940F00800EA
:102550002168C8612068C06920F004002168C86152
:102560002068C069296908432168C86118E02946C4
:10257000206800F0EFFF2068C06940F40060216827
:10258000C8612068C06920F480602168C861206843
:10259000C069296940EA01202168C86100E000BFE4
:1025A00000BF012084F83D0000BF002084F83C00FB
:1025B00000BF00BF85E710B504460CB9012010BD6F
:1025C00094F83D0028B9002084F83C00204600F033
:1025D0000CF8022084F83D00211D206800F0C2FEA6
:1025E000012084F83D000020E9E7704770470000B3
:1025F00070B504460E4601223146206800F0ECFE1C
:102600000D492068884201D1012000E0002028B156
:102610002068406C40F4004021684864206880686D
:1026200000F00705062D05D02068006840F0010085
:1026300021680860002070BD002C014010B50446E0
:1026400003492068884201D1FEF768FF10BD0000F1
:1026500000080040704770472DE9F04704462068A5
:1026600005682068C668206847694FF00008C146C1
:1026700005F00F08B8F1000F0AD105F0200038B1BD
:1026800006F0200020B1204600F0D9FFBDE8F08719
:10269000B8F1000F6DD007F0010018B906F4907082
:1026A000002866D005F0010030B106F4807018B142
:1026B000E06B40F00100E06305F0040030B107F08A
:1026C000010018B1E06B40F00200E06305F0020089
:1026D00030B107F0010018B1E06B40F00400E06396
:1026E00005F0080030B107F0010018B1E06B40F0D0
:1026F0000800E063E06B68B305F0200028B106F045
:10270000200010B1204600F09AFF20684069C0F315
:102710008019E06B00F0080010B9B9F1000F22D069
:10272000204600F06CFF2068406900F04000B0B126
:102730002068406920F0400021684861606B50B11A
:102740001748616B4863606BFEF7EAFB10B1606B82
:10275000416B88470CE02046FFF77DFF08E02046EC
:10276000FFF779FF04E02046FFF775FF0020E063E4
:102770008CE705F0800030B106F0800018B12046EB
:1027800001F080F882E705F0400030B106F040002B
:1027900018B1204600F043FF78E700BF76E700005D
:1027A000EB35000810B504460CB9012010BDA06936
:1027B00000B100E000BF94F8390028B9002084F887
:1027C0003800204600F028F8242084F839002068DA
:1027D000C06820F400502168C860204600F082FFE5
:1027E0002068006920F490402168086120684069F1
:1027F00020F02A00216848612068C06840F4005039
:102800002168C8600020E063202084F8390084F843
:102810003A000020CAE7000010B586B00446002048
:1028200002900390049005903B492068884237D17C
:1028300000BF3A48806940F48040384988610846C2
:10284000806900F48040019000BF00BF00BF0846CF
:10285000806940F0040088610846806900F0040047
:10286000019000BF00BF4815029002200390032092
:10287000059002A92A48FEF7ADFC4FF48060029053
:1028800000200390049002A92548FEF7A3FC002233
:1028900005212520FEF7E6FE2520FEF7D3FE39E0D0
:1028A00020492068884235D100BF1C48C06940F4E7
:1028B00000301A49C8610846C06900F40030019030
:1028C00000BF00BF00BF0846806940F00400886177
:1028D0000846806900F00400019000BF00BF04209A
:1028E0000290022003900320059002A90C48FEF7F5
:1028F00071FC0820029000200390049002A908486F
:10290000FEF768FC002205212620FEF7ABFE2620FC
:10291000FEF798FE06B010BD0038014000100240DE
:1029200000080140004400407047704700BFFEE7C8
:1029300010B5002240210D48FEF7E4FD00F010F92B
:10294000002280210948FEF7DDFD00F009F901228F
:1029500040210648FEF7D6FD00F002F90022402192
:102960000248FEF7CFFD00F0FBF810BD000C01405F
:1029700010B5002240210D48FEF7C4FD00F0F0F82C
:10298000012280210948FEF7BDFD00F0E9F801228F
:1029900040210648FEF7B6FD00F0E2F80022402193
:1029A0000248FEF7AFFD00F0DBF810BD000C01405F
:1029B00070B508250024012280211348FEF7A2FDEE
:1029C00016E06006040E002240210F48FEF79AFD33
:1029D00000F0C6F8012240210B48FEF793FD00F0FD
:1029E000BFF880210848FEF785FD08B144F00104D6
:1029F000281EA5F10101CDB2E3D1002240210248F9
:102A0000FEF780FD204670BD000C014070B5044605
:102A100008251FE0002240211448FEF773FD00F056
:102A20009FF804F0800028B1012280210F48FEF7B2
:102A300069FD04E0002280210C48FEF763FD60067A
:102A4000040E00F08DF8012240210848FEF75AFDDF
:102A500000F086F8281EA5F10101CDB2DAD10022DE
:102A600040210248FEF74EFD70BD0000000C014001
:102A700010B5012280211448FEF744FD01224021B7
:102A80001148FEF73FFD00F06BF880210E48FEF77D
:102A900031FD08B9002010BD002280210A48FEF750
:102AA00031FD00F05DF880210748FEF723FD08B1F5
:102AB0000020F0E7002280210348FEF723FD00F00C
:102AC0004FF80120E7E70000000C014010B500229C
:102AD00040210D48FEF716FD00F042F8002280214B
:102AE0000948FEF70FFD00F03BF80122402106489F
:102AF000FEF708FD00F034F8012280210248FEF7BD
:102B000001FD00F02DF810BD000C014010B50022B1
:102B100040211248FEF7F6FC00F022F80122802145
:102B20000E48FEF7EFFC00F01BF8012240210B4895
:102B3000FEF7E8FC00F014F880210848FEF7DAFC04
:102B400008B1012400E00024002240210348FEF7E0
:102B5000D9FC00F005F8204610BD0000000C014033
:102B6000322001E0411E88B20028FBD170470020CE
:102B700000BF011EA0F10102D0B2FAD170470000DF
:102B800070B50446002521E004F0800028B1012240
:102B900080212048FEF7B6FC04E0002280211D4879
:102BA000FEF7B0FCFFF7E3FF012240211948FEF7D2
:102BB000A9FCFFF7DCFF002240211648FEF7A2FC2B
:102BC000FFF7D5FF6006040E681CC5B2082DDBDBDD
:102BD000012280210F48FEF795FCFFF7C8FF012274
:102BE00040210C48FEF78EFCFFF7C1FF8021094809
:102BF000FEF780FC18B101200749087002E00020B0
:102C000005490870002240210248FEF77BFCFFF7CF
:102C1000AEFF70BD000C01406200002010B5012223
:102C200040210C48FEF76EFC012280210948FEF786
:102C300069FCFFF79CFF002280210648FEF762FC3A
:102C4000FFF795FF002240210248FEF75BFCFFF7EB
:102C50008EFF10BD000C014010B5002280210948F4
:102C6000FEF750FC012240210648FEF74BFCFFF71F
:102C70007EFF012280210348FEF744FCFFF777FF27
:102C800010BD0000000C014070B504460D4616460C
:102C9000FFF7C4FFE0B2FFF773FF0E48007801288A
:102CA00001D1002070BD2846FFF76AFF094800786F
:102CB000012801D10020F5E73046FFF761FF054804
:102CC0000078012801D10020ECE7FFF7C5FF0120C3
:102CD000E8E70000620000200EB50020009001909F
:102CE0000290124812490860002111488160017366
:102CF00001754FF46021C16100200D494860012138
:102D00000B480161FEF732F808B1FDF7CEFE042052
:102D10000090012001900020029069460448FDF7D0
:102D200075FF08B1FDF7C1FE0EBD00000024014093
:102D3000180A002008B500BF0A48406940F00100A9
:102D4000084948610846406900F00100009000BF52
:102D500000BF002205210F20FEF784FC0F20FEF7A4
:102D600071FC08BD0010024000B585B00020019044
:102D700002900390049000BF3C48806940F010002E
:102D80003A4988610846806900F01000009000BF51
:102D900000BF00BF0846806940F0200088610846F7
:102DA000806900F02000009000BF00BF00BF08460F
:102DB000806940F0040088610846806900F00400E2
:102DC000009000BF00BF00BF0846806940F00800C7
:102DD00088610846806900F00800009000BF00BFCD
:102DE00000224FF487612248FEF78CFB0122C021AC
:102DF0001F48FEF787FB4FF4876001900120029087
:102E0000002003900320049001A91948FEF7E2F97D
:102E10004FF4A040019000200290039001A91448B3
:102E2000FEF7D8F94FF4C8500190002002900390AB
:102E300001A91048FEF7CEF9C020019011200290A0
:102E4000012003900320049001A90948FEF7C2F96C
:102E50004FF4005001900120029003900320049051
:102E600001A90548FEF7B6F905B000BD0010024003
:102E7000000C0140000801400010014010B50F484F
:102E80000F4908604FF4827048604FF400410C48CD
:102E900081600021C160016141614FF40071816175
:102EA0003021C16100210162416281620A21C16257
:102EB000FFF74CF808B1FDF7F8FD10BD00380040F1
:102EC000480A002000B58DB0002009900A900B90B0
:102ED0000C90079008901C216846FDF788F94FF088
:102EE0008040274908601F204860002124488160F5
:102EF00041F6D051C160002101618161FFF7F0F816
:102F000008B1FDF7D2FD4FF48050099009A91C4883
:102F1000FFF72BF908B1FDF7C8FD1948FFF74BFB88
:102F200008B1FDF7C2FD00200790089007A91448DA
:102F3000FFF7ACF808B1FDF7B8FD60200090002065
:102F4000019002900490002269460D48FFF7AFFA05
:102F500008B1FDF7AAFD042269460948FFF7A7FA60
:102F600008B1FDF7A2FD0C2269460548FFF79FFA5C
:102F700008B1FDF79AFD0248FFF748FA0DB000BD11
:102F8000240B002010B50B480B4908604FF4E130CA
:102F90004860002108488160C16001610C214161E5
:102FA00000218161C161FFF7FDFB08B1FDF77DFDE7
:102FB00010BD000000380140640B002010B50B4824
:102FC0000B4908604FF4E1304860002108488160F7
:102FD000C16001610C21416100218161C161FFF784
:102FE000E1FB08B1FDF761FD10BD000000440040A9
:102FF000A40B002000BFFEE7704700002DE9F0435E
:1030000005461746802D01DA402901DBBDE8F08333
:10301000E7B10C464FEAE17C01EB5C7C4FEAEC0C3B
:10302000DFF8808008EBC50818F80CC00B464FEAA3
:10303000E17801EB58784FEAE808A1EBC8094FF0B6
:10304000010808FA09F84CEA080C1BE00A464FEAA6
:10305000E17C01EB5C7C4FEAEC0CDFF8488008EB8C
:10306000C50818F80CC008464FEAE17801EB58781B
:103070004FEAE808A1EBC8094FF0010808FA09F87F
:103080002CEA080C0E464FEAE17801EB58784FEA3B
:10309000E808DFF8109009EBC50909F808C000BF7F
:1030A000B4E70000A810002070B5002420E004F16F
:1030B000B000C2B200217820FFF7E6FD00221146E1
:1030C0007820FFF7E1FD102200217820FFF7DCFDDA
:1030D000002509E0084800EBC500025D402178208A
:1030E000FFF7D2FD681CC5B2802DF3DB601CC4B2B3
:1030F000082CDCDB70BD0000A810002010B5AE224B
:1031000000217820FFF7C0FD202200217820FFF762
:10311000BBFD002211467820FFF7B6FDB02200214A
:103120007820FFF7B1FDC82200217820FFF7ACFD21
:10313000002211467820FFF7A7FD102200217820F9
:10314000FFF7A2FD402200217820FFF79DFD81229C
:1031500000217820FFF798FDDF2200217820FFF77B
:1031600093FDA12200217820FFF78EFDA6220021E9
:103170007820FFF789FDA82200217820FFF784FD41
:103180003F2200217820FFF77FFDA4220021782034
:10319000FFF77AFDD32200217820FFF775FD00228A
:1031A00011467820FFF770FDD52200217820FFF727
:1031B0006BFDF02200217820FFF766FDD922002167
:1031C0007820FFF761FD222200217820FFF75CFDC7
:1031D000DA2200217820FFF757FD12220021782003
:1031E000FFF752FDDB2200217820FFF74DFD202262
:1031F00000217820FFF748FD8D2200217820FFF77D
:1032000043FD142200217820FFF73EFDAF2200216C
:103210007820FFF739FD10BD08B508490968C908CD
:103220004FF47A72B1FBF2F14143009100BF00BF4D
:1032300000994A1E00920029F9D108BD70000020B3
:1032400010B500BF502080F31188BFF34F8FBFF33C
:103250006F8F00BF01F0B0FC18B14FF080500449EF
:10326000086000BF002080F3118800BF10BD00007F
:1032700004ED00E000B593B0282109A8FCF7B7FFE2
:10328000142104A8FCF7B3FF0020009001900290E5
:1032900003900120099000040A9000200B90012067
:1032A0000D9002201090C10311914FF4E011129182
:1032B00009A8FEF719FC08B1FDF7F7FB0F200490F1
:1032C00002200590002006904FF4806007900020B7
:1032D0000890022104A8FEF7AFFA08B1FDF7E5FB5C
:1032E00002200090800302906846FEF70DFA08B1B4
:1032F000FDF7DBFB13B000BD1148006840F0010092
:103300000F490860084640680E4908400C4948606B
:10331000084600680C4908400949086008460068EA
:1033200020F4802008600846406820F4FE004860D1
:103330004FF41F008860C80304490860704700000C
:10334000001002400000FFF8FFFFF6FE08ED00E06D
:1033500010B50348FEF78EFF00F0DAFA10BD00004A
:10336000E40A002010B50268184B984208D0B0F16A
:10337000804F05D0164B984202D0164B984203D18D
:1033800022F070024B681A43104B984208D0B0F1FB
:10339000804F05D00E4B984202D00E4B984203D17D
:1033A00022F44072CB681A4322F080034C6943EA4E
:1033B000040202608B68C3620B688362034B98420D
:1033C00001D10B6903630123436110BD002C01404F
:1033D000000400400008004030B501F01F05012442
:1033E00004FA05F3046A9C430462046A01F01F05B1
:1033F00002FA05F52C43046230BD30B50C468168F5
:1034000021F47F4142EA032525432943816030BDF1
:103410000A46816821F0700142F007031943816078
:103420007047000030B5056A25F001050562026AA3
:103430004368846924F0700424F003040D682C436D
:1034400022F002028D682A430D4DA84206D100BF2A
:1034500022F00802CD682A4322F00402084DA84257
:1034600007D123F4807323F400734D692B438D69D6
:103470002B43436084614D684563026230BD0000A8
:10348000002C014030B5056A25F010050562026A7E
:103490004368846924F4E04424F440740D6844EAE9
:1034A000052422F020028D6842EA05120E4DA84242
:1034B00007D100BF22F08002CD6842EA051222F057
:1034C0004002094DA84209D123F4806323F400632C
:1034D0004D6943EA85038D6943EA8503436084614E
:1034E0004D688563026230BD002C014030B5056A2D
:1034F00025F480750562026A4368C46924F070048B
:1035000024F003040D682C4322F400728D6842EA13
:1035100005220F4DA84207D100BF22F40062CD68FA
:1035200042EA052222F48062094DA84209D123F41F
:10353000805323F400534D6943EA05138D6943EA30
:1035400005134360C4614D68C563026230BD00006D
:10355000002C014030B5056A25F480550562036AE8
:103560004468C26922F4E04222F440720D6842EAE3
:10357000052223F400538D6843EA0533064DA84223
:1035800004D124F480444D6944EA85144460C26146
:103590004D680564036230BD002C014030B50B4618
:1035A0001446026A056A25F001050562816921F069
:1035B000F00141EA041122F00A021A438161026219
:1035C00030BD30B50B461446056A25F0100505627E
:1035D0008169026A21F4704141EA043122F0A002BB
:1035E00042EA03128161026230BD70B505466C6A21
:1035F0000020E085E0842046FFF72DF870BD0168CB
:10360000C96821F490710268D1600168496921F0AC
:10361000010102685161202180F83A10704710B50D
:1036200004462068C06820F040002168C86020205F
:1036300084F839002046FFF778F9002010BD70B5F6
:10364000044694F83A0022284AD1A068B0F5805F79
:1036500013D1A56A206940B920684068C0F308000A
:103660002880A06A801CA06219E020684068C0B26F
:103670002880A06A401CA06211E0206938B9206847
:103680004068C1B2A26A501CA062117007E02068B5
:10369000406800F07F01A26A501CA0621170E08DAA
:1036A000401E80B2E085C8B92068C06820F02000C4
:1036B0002168C8602068C06820F480702168C860F4
:1036C0002068406920F0010021684861202084F8CA
:1036D0003A002046FFF728F9002070BD0020FCE7E3
:1036E0000220FAE770B504462168096921F44051C7
:1036F000E2681143226811612269A168114362697D
:1037000041EA02052168C96841F20C6291432943EC
:103710002268D1602168496921F44071A26911438E
:1037200022685161564A2168914254D1FEF782F9CC
:1037300000EBC00101EB001162689200B1FBF2F1F5
:1037400000EBC00202EB001263689B00B2FBF3F2D5
:103750006423B2FBF3F202EBC20303EB0212A1EB10
:103760008201322202EB01116422B1FBF2F101F07D
:10377000F00100EBC00202EB001263689B00B2FB99
:10378000F3F26423B2FBF3F201EB021200EBC0018F
:1037900001EB001163689B00B1FBF3F100EBC00388
:1037A00003EB00136668B600B3FBF6F36426B3FBC5
:1037B000F6F303EBC30606EB0313A1EB83013223FD
:1037C00003EB01116423B1FBF3F101F00F0111448C
:1037D0002268916053E0FEF71DF900EBC00101EB98
:1037E000001162689200B1FBF2F100EBC00202EB43
:1037F000001263689B00B2FBF3F26423B2FBF3F2A6
:1038000002EBC20303EB0212A1EB8201322202EBB4
:1038100001116422B1FBF2F101F0F00100EBC002F2
:1038200002EB001263689B00B2FBF3F26423B2FB6D
:10383000F3F201EB021200EBC00101EB001163682F
:103840009B00B1FBF3F100EBC00303EB00136668D0
:10385000B600B3FBF6F36426B3FBF6F303EBC30643
:1038600006EB0313A1EB8301322303EB0111642365
:10387000B1FBF3F101F00F0111442268916070BDBA
:1038800000380140014691F8390021282CD1886880
:10389000B0F5805F0FD10A6A1088C0F308000B688A
:1038A0005860086918B9086A801C086209E0086A4B
:1038B000401C086205E00B6A581C086218780B6807
:1038C0005860C88C401E80B2C88458B90868C06867
:1038D00020F080000B68D8600868C06840F04000A5
:1038E0000B68D860002070470220FCE710B5024842
:1038F000FEF7B2FE10BD0000640B002010B50248B8
:10390000FEF7AAFE10BD0000A40B002000BFFEE7DA
:1039100010B500F0A5FC10BD10B500F0C1FC10BD45
:1039200010B500210848FEF763FE04210648FEF7A3
:103930005FFE0C210448FEF75BFE00F0C6FFFFF7B8
:10394000DDFB00F0B7FC10BD240B00200FB4084BCA
:1039500010B504A902AA039800F0FAF8044602A9D7
:10396000002000F078FC204610BC5DF814FB00003D
:103970005742000802480068C0F302207047000068
:103980000CED00E010B5002804DB0A07130E054A11
:10399000135406E00A07140E034A00F00F031B1F1E
:1039A000D45410BD00E400E018ED00E002E008C8C7
:1039B000121F08C1002AFAD170477047002001E0A9
:1039C00001C1121F002AFBD1704700002DE9FF5FE3
:1039D00082B00021DDE90430020DDDF840B0034380
:1039E00018D044F61050A2F2FF3242431514119839
:1039F00001281FD0A5EB0B00401C5FEA000A4FF026
:103A000000064E4FDFF83891B046504615D5CAF142
:103A1000000413E0119801244AA3012801D16FEAA0
:103A20000B010298119AC0E90031C0E9024206B0C8
:103A3000BDE8F09FCBF10000DFE704460021404ADB
:103A4000491842EB0450CDE9001012E0E00707D01E
:103A500032463B4640464946FCF743FD8046894690
:103A600032463B4610461946FCF73BFD06460F46DC
:103A70006410002CEAD1DDE90401DDE90023BAF18C
:103A8000000F06DAFCF72DFD42464B46FCF729FDF8
:103A900005E0FCF798FD42464B46FCF794FD0446D2
:103AA0000E460022284BFCF75DFE03D84FF0FF3096
:103AB000014607E00022254B20463146FCF76AFC10
:103AC000FCF794FF102409E0002C0ADB0A220023F3
:103AD000FCF7A6FE039B30321A55641E50EA010221
:103AE000F2D1641C039AC4F111031444119A012AFF
:103AF00003D0012208430DD10AE0084304D000207E
:103B00004FF0110B119072E7A3EB0B056D1E0DE04A
:103B10005B4504DD4FF0000205F1010504E003DA26
:103B20004FF00002A5F10105002AECD0029811998E
:103B3000C0E90231C0E9004579E700000000144007
:103B40000000F03F300000000000F0430000E03FC4
:103B50002DE9FF4F95B09A46884606460025EEE1CE
:103B6000252877D100242746F94A0121039400E053
:103B7000044316F8013F203B01FA03F01042F7D14D
:103B800030782A2811D06FF02F033078A0F130025E
:103B9000092A16D8039A44F0020402EB820203EBCE
:103BA00042021044761C0390EFE758F8042B03926E
:103BB000002A03DA504244F40054039044F0020413
:103BC000761C30782E2816D116F8010F44F0040424
:103BD0002A280DD06FF02F023078A0F13003092B86
:103BE00009D807EB870302EB4303C718761CF3E7FA
:103BF00058F8047B761C30786C280FD006DC4C28F3
:103C000017D068280DD06A2814D104E0742810D089
:103C10007A280FD10DE044F400140AE044F4801433
:103C200001E044F440147278824202D104F5801419
:103C3000761C761C307866280BD013DC582877D099
:103C400009DC002875D04528F6D04628F4D047284E
:103C50001AD193E118E0632835D0642879D065281B
:103C600012D18BE1702873D008DC6728F1D0692865
:103C70006FD06E280DD06F2806D1ACE073282CD001
:103C8000752874D0782853D05246179990476D1CE8
:103C900054E1C4F30250022809D003280DD0D8F80B
:103CA000001004280DD00D6008F1040846E1D8F892
:103CB0000010EA17C1E90052F6E7D8F800100D80AD
:103CC000F2E70D70F0E718F8041B8DF800100020E3
:103CD0008DF80100EB46012003E058F804BB4FF0DB
:103CE000FF3061074FF0000102D40DE009F101013E
:103CF0008946B9420FDA8145F8DB1BF80910002923
:103D0000F4D108E009F1010189468142FADB1BF890
:103D100009100029F6D103985346A0EB0907214664
:103D20003846179A00F080FA284400EB090507E0AE
:103D300044E008E10DE01BF8010B5246179990474B
:103D4000B9F10109F7D2534621463846179AF2E0F5
:103D500039E00A21C4F302524FF0000B0091022A0D
:103D600006D058F8040BC117032A09D00AE023E053
:103D700008F1070020F00702F2E80201904605E092
:103D800000B2C117042A01D140B2C117002906DAD6
:103D90000A460021404261EB02012D2202E0220589
:103DA00004D52B228DF80420012203E0E20701D084
:103DB0002022F7E7914657E00A2100E010214FF05A
:103DC000000B00910BE010214FF0000B44F00404B5
:103DD0000827009103E008204FF0000B0090C4F387
:103DE0000252022A05D058F8040B0021032A08D0F9
:103DF00008E008F1070020F00702F2E8020190460F
:103E000003E080B2042A00D1C0B24FF000092207BB
:103E10002AD53278702A07D0DDF800C08CF0100C5B
:103E20005CEA0B0C05D00EE040228DF80420012244
:103E300008E050EA010306D030238DF804308DF8F5
:103E4000052002229146009B83F0080353EA0B03EE
:103E50000AD150EA010201D1620705D530228DF85E
:103E600004204FF001097F1E3278582A04D039A26D
:103E70000C920CAA02920BE03BA2F9E75B46009A77
:103E8000FCF7CEFC0C9B9B5C029A521E02921370B4
:103E900050EA0102F2D1029804A9081A00F1200B9D
:103EA000600702D524F4803400E001275F4502DD7D
:103EB000A7EB0B0000E0002000EB0B010090039843
:103EC0004944401A0390E00306D453462146179A0A
:103ED000039800F0A9F90544002706E001A852461E
:103EE000C05D179990476D1C7F1C4F45F6DBE003C2
:103EF0000CD553462146179A039800F095F90544CE
:103F000004E030205246179990476D1C0099481ED6
:103F100000900029F5DC08E00298029952460078EA
:103F2000491C0291179990476D1CBBF10001ABF140
:103F3000010BF1DC5BE100F065F90544761C30789B
:103F400000287FF40DAE19B02846BDE8F08F0000C0
:103F5000092801003031323334353637383961625F
:103F60006364656600000000303132333435363723
:103F7000383941424344454600000000600700D400
:103F8000062708F1070020F00700F0E8022380462A
:103F900003F0004C5FEA0C0001D097A009E0200577
:103FA00001D596A005E0E00701D095A001E0AFF2B1
:103FB0004C001390307823F0004365280CD006DCC9
:103FC000452809D046281DD047287FD13BE06628E8
:103FD00018D067287AD136E00021112F01DB11209B
:103FE00000E0781CCDE9000104A90CA8FFF7EEFC65
:103FF000DDE90D010C9A4FF0000B07F10109109259
:1040000000914EE04FF000400097CDE9011004A967
:104010000CA8FFF7DBFCDDE90D020C9B0F994FF0BC
:10402000000B91461093009211B9791C00EB010925
:10403000B7EB090003D4C0F1FF3B07F10109A9EB7D
:104040000700019042E0012F00DA01270021112F23
:1040500001DD112000E03846CDE9000104A90CA8DB
:10406000FFF7B4FCDDE90D010C9A00914FF0000B55
:10407000B946109221070FD4009A4A4503DA9146B7
:1040800001E0A9F10109B9F1010F05DD109AA9F1CB
:104090000101515C3029F4D0B84202DA10F1040F6A
:1040A00003DA0121CDE9011010E0002803DC83448C
:1040B000A9EB000102E0411C494500DD8946A0EB67
:1040C0000B00401C01904FF000400290200705D4E7
:1040D0000198484502DB4FF0FF30019000208DF839
:1040E0004B0002980DF14B07B0F1004F25D0022094
:1040F0000C902B200D90029800280CDA4042029080
:104100002D200D9007E00A210298FCF773FB303157
:10411000029007F8011D0C99481E0C900029F2DC52
:1041200002980028EFD1791E0D980870307800F0C1
:10413000200040F0450007F8020D11A8C01BC01D6B
:1041400002901398007800B1012000EB090101985A
:1041500001EBE071029801440398401A401E03905D
:10416000E00306D453462146179A039800F05CF802
:1041700005441398007818B15246179990476D1C62
:10418000E00323D553462146179A039800F04CF8D4
:1041900005441BE0BBF1000F07DB0098584504DD28
:1041A0001098179910F80B0001E01799302052462B
:1041B000904701980BF1010B401E05F1010501909C
:1041C00004D12E205246179990476D1CB9F1000179
:1041D000A9F10109DEDC05E017F8010B5246179939
:1041E00090476D1C0299481E02900029F4DC53464A
:1041F0002146179A03989EE62D0000002B00000030
:10420000200000002DE9F041044600251E46174617
:10421000880404D405E039462020B0476D1C641E94
:10422000F9D52846BDE8F0812DE9F0410446002586
:104230001E469046C80301D5302700E02027880499
:1042400004D505E041463846B0476D1C641EF9D5DB
:104250002846BDE8F0810A68531C0B601070704757
:104260000D480088401C00B20B4908800846B0F990
:1042700000000A2801DD0020088008480088401C52
:1042800000B2064908800448B0F90000322801DD78
:10429000002008807047000020000020220000203D
:1042A00010B500F061F900F00DF800F06DFBFEF7BD
:1042B000FBFE10BD10B500F003FC0E2000F050FB1B
:1042C00010BD00002DE9F84FA14CA4F20440B0F855
:1042D0000458B0F8040803287EDDAA1E54F8221002
:1042E000EA1E54F82200FCF771FA30D2AA1E54F8E4
:1042F00022106A1E54F82200FCF768FA27D2FDF754
:1043000007F90646FCF7D7F90146A4F20440B0F8D5
:10431000402800F6240040F82210A81E54F820106F
:10432000A4F20440B0F8402800F6080040F822103B
:10433000A0F60800B0F84008401C072190FBF1F2FD
:1043400001FB120081B2A4F20440A0F84018AA1E9A
:1043500054F82210EA1E54F82200FCF741FA2CD23D
:10436000AA1E54F822106A1E54F82200FCF738FAEC
:1043700023D2FDF7CDF80646FCF79DF901467548B6
:10438000B0F87C2800F5066040F82210A81E54F80A
:1043900020107048B0F87C2800F6440040F8221045
:1043A0006C48B0F87C08401C072190FBF1F201FB3F
:1043B000120081B26748A0F87C186648B0F840182F
:1043C000B0F87C08401C814209DC6248B0F87C18D7
:1043D000B0F84008401C00E08AE0814205DD002181
:1043E0005C48A0F84018A0F87C185A48B0F840087B
:1043F00000287DD15748B0F87C080028F9D1002763
:104400000090002618E0544951F82600FCF782F984
:1044100081465149721C51F82200FCF77BF9804615
:10442000C84502D9A8EB090001E0A9EB08004A49F8
:104430005C3141F82600761C072EE4DB002005E005
:1044400045495C3151F820100F44401C0328F7DB2C
:104450000320B7FBF0F73F48C0F8A0780021C0F870
:104460009C18002012E03C4B5C3353F820108F4224
:1044700001D97B1A00E0CB1B1A46364BD3F89C3887
:10448000934202D2334BC3F89C28401C0328EADB3A
:104490004FF0000A002622E02F4A203252F8261060
:1044A0003C3A52F82600FCF79BF909D22A4A2032FE
:1044B00052F826103C3A52F82600FBF7F5FE08E0C9
:1044C000254A1C3A52F826103C3252F82600FBF7D7
:1044D000EBFE83465146FBF795FE8246761C072E7F
:1044E000DADB1E495046FBF717FF8246504600E0D4
:1044F0002CE0FCF70FF91749C1F8A4080846D0F8DA
:104500009C08C82814D251461548FCF75FF90FD211
:104510000120104981F8B0084EF66020B0FBF7F09A
:10452000C1F8A8080846D0F8A8080E4908600CE0B1
:1045300051460B48FCF74AF907D20020054981F89B
:10454000B008C1F8A808C1F8AC0800BFBDE8F88FF2
:104550007804002074000020980800200000C0406B
:10456000000020411C0000202DE9F84F4FF0000A08
:10457000002000F010F982460AF0800000287DD06B
:1045800001226946052000F050F9BDF800004749B6
:1045900000F0A0F88346FCF793F807460022444B4E
:1045A000FBF7F8FE0546FCF7F5F80446BDF80200F7
:1045B000404900F08FF88346FCF782F80546002258
:1045C0003B4BFBF7E7FE0746FCF7E4F881463A4829
:1045D0003A49097840F8214039483A49097840F881
:1045E00021900024A14600250EE0334850F8251004
:1045F0002046FBF707FE0446314850F82510484690
:10460000FBF700FE81466D1C1E2DEEDB2E49204679
:10461000FBF782FE04462C494846FBF77DFE8146A7
:10462000264800781D2803DA24480078401C00E062
:10463000002022490870234800781D2803DA214809
:104640000078401C00E000201E4908701F492046E9
:10465000FBF7D8FD1E49B1F8042801F2044141F8E6
:1046600022001A494846FBF7CDFD01461848B0F82C
:10467000042800F2046040F8221000E013E014481F
:10468000B0F80408401C782190FBF1F201FB120005
:1046900081B20F48A0F8041890F8B108401C0C49EA
:1046A00081F8B10800BFBDE8F88F000000000020CD
:1046B000000059400C0000202809002018000020AC
:1046C000A0090020190000200000F041000048422D
:1046D000740000202DE9F04706460C46A1682068CA
:1046E000FBF7E8FD80463046FBF7DCFF814641469C
:1046F000FBF788FD054628462168FBF7D5FD814676
:104700000549FBF7D7FD8046FBF7EBFF07B22560B5
:104710003846BDE8F08700000000A0402DE9F843CE
:1047200005460E4617469846089C43462A4631469B
:1047300028460094FCF710FA33463A46314628469C
:104740000094FCF709FA43462A464146384600944D
:10475000FCF702FA33463A46414638460094FCF7E5
:10476000FBF9BDE8F883FCF7E5FEFEF783FDFEF7F5
:10477000FBFAFEF7DFFAFEF781FBFEF703FCFEF71C
:10478000ABFAFEF79FFBFEF719FCFFF7C9F801E053
:10479000FFF7C2F8FCE770B50446FEF769F9AE20F2
:1047A000FEF734F9FEF7B2F900B118E02046FEF743
:1047B0002DF9FEF7ABF900B111E0FEF759F9AF2082
:1047C000FEF724F9FEF7A2F900B108E0FEF7F0F8D1
:1047D0000546FEF7CDF8FEF779F9284670BDFEF7DD
:1047E00075F90020FAE770B505460C46FEF740F96A
:1047F000AE20FEF70BF9FEF789F900B111E028466B
:10480000FEF704F9FEF782F900B10AE02046FEF750
:10481000FDF8FEF77BF900B103E0FEF757F9012040
:1048200070BDFEF753F90020FAE72DE9F047824604
:104830000C46174600253E46FEF71AF9AE20FEF755
:10484000E5F8FEF763F900B13BE05046FEF7DEF80D
:10485000FEF75CF900B134E0FEF70AF9AF20FEF78D
:10486000D5F8FEF753F900B12BE025E0FEF7A0F8EC
:104870008046FEF75DF8FEF79BF88146FEF758F894
:1048800049EA082024F82500FEF792F88046FEF752
:104890004FF8FEF78DF88146012E02D1FEF768F839
:1048A00001E0FEF745F849EA082004EB850148805D
:1048B000701EC6B2681CC5B2002ED7D1FEF706F92D
:1048C00000BFFEF703F9BDE8F08710B50B21062005
:1048D000FFF789FFF0210120FFF785FF002108463F
:1048E000FFF781FF33210920FFF77DFF43210720D8
:1048F000FFF779FF00210220FFF775FF0021032059
:10490000FFF771FF0F210420FFF76DFF10BD0000BE
:104910000A490968096809B9012100E0002121B1AB
:104920004FF0FF31064A116006E004490968C96882
:10493000C868034A416811607047000028000020E1
:104940005400002010B50446034890FBF4F10348DE
:10495000C160FDF730FE10BD40420F00240B002067
:1049600010B50446002C0ADB152C08DA04490C802B
:104970000449034A128831F81200FFF7E3FF10BD23
:10498000600000206E5A000810B500F059F800F0E1
:1049900001F810BDF0B58FB01F4820A1D0F8A828AD
:1049A00002A8FEF7D3FF02A800234FF6E07202210F
:1049B00000900846FCF77CF81749D1F8AC08FBF7E3
:1049C000BDFE0646184A194BFBF7CCFE02D216482C
:1049D000164904E01049D1F8AC08FBF7AFFE0446D5
:1049E000FBF7D8FE0C49C1F8AC08D1F8AC08FBF7CE
:1049F000A5FE044622460B460DA102A8FEF7A6FF1F
:104A000002A8002340F2FF72122100900220FCF75E
:104A10004FF80FB0F0BD00007400002048523A2556
:104A200033642020000000008FC2F5285CFF58404E
:104A300053503A25322E32662525202000000000F2
:104A4000F8B51C49B1F80418491E1B4A52F8210058
:104A50001A49FBF761FC0746FBF75CFE85B2182D8F
:104A600001DD182000E0284605461248B0F8040889
:104A7000001D84B2C5F13C0086B200203C232246D2
:104A8000242100902046FCF767F84FF6FF70611C68
:104A90008AB2009088B23C232421FCF75DF84FF6DF
:104AA000FF703C232246314600902046FCF754F824
:104AB000F8BD0000740000207804002000002041B0
:104AC00008B54FF6FF703F237F22012100900020A0
:104AD000FFF724FE4FF6FF703D237D222321009037
:104AE0000220FFF71BFE08BD01460A69D1E901302B
:104AF0009860D1E9010358605068884201D1886804
:104B00005060002008611068401E106010687047F7
:104B100042684A6093688B6093685960916008614D
:104B200003685B1C036070471E48006818B10120D1
:104B30001D49086034E000201B4908601B480168DB
:104B40000CE051B900BF502080F31188BFF34F8FA4
:104B5000BFF36F8F00BF00BFFEE7491E01EB81006E
:104B6000134A52F8200008B9012000E00020002874
:104B7000E7D101EB81020E4B03EB820042685268E1
:104B8000426000F108024368934202D142685268D1
:104B900042604268D268074B1A600448016000BF57
:104BA000704700005C000020480000203C0000200E
:104BB000E40B0020240000202DE9F0414FF0000814
:104BC00043480068002876D142480068451C4148A7
:104BD000056015BB40480068006808B9012000E086
:104BE000002050B900BF502080F31188BFF34F8FD1
:104BF000BFF36F8F00BF00BFFEE737480768374835
:104C00000068354908603548076035480068401C31
:104C100033490860FFF77CFE00BF324800688542D8
:104C20003BD300BF2C480068006808B9012000E0B1
:104C3000002020B14FF0FF302A4908602CE02648C0
:104C40000068C068C4686668B54202D2254806603C
:104C500022E0201DFFF748FFA06A18B104F11800F8
:104C6000FFF742FF2049E06A0968884202D91E49DD
:104C7000E06A0860E16A01EB81011C4A02EB8100F5
:104C8000211DFFF745FF1A49E06A0968C96A884291
:104C9000C8D34FF00108C5E700BF15480068C06AD7
:104CA00000EB8000114951F82000012801D94FF094
:104CB000010805E0FFE70F480068401C0D49086047
:104CC0000D48006808B14FF001084046BDE8F0818A
:104CD0005C00002038000020280000202C0000206C
:104CE0004C000020540000203C000020E40B002079
:104CF00024000020440000204800002000000000A4
:104D00000000000000000000000000000010101073
:104D100010101010101000001010000000006C6C3B
:104D200024240000000001000000000000242424CE
:104D300024FE48484848FC909090900000103C5455
:104D40009290503814121292547810000000225C95
:104D500094A8481010242A525488000000003048BB
:104D60004850206E54948C888A74000000003030C3
:104D700010100000000000000000000000040810F7
:104D80001020202020202010100804000080402047
:104D90002010101010101020204080000000000093
:104DA00010543810385410000000000000000010AB
:104DB000101010FE10101010000000000000000085
:104DC00000000000000000001010200000000000A3
:104DD000000000FE000000000000000000000000D5
:104DE000000000000000000010100000000004049B
:104DF0000808101020204040808000000000384447
:104E00008282828282828282443800000000107096
:104E10001010101010101010107C0000000038440A
:104E2000828204081020408284FC00000000384484
:104E30008202043804020282443800000000040C9C
:104E4000141424244444FE04040E00000000FC80DA
:104E50008080B8C4820202828478000000003C4254
:104E60008280B8C4828282824438000000007E4280
:104E700082040408080810101010000000003844D4
:104E800082824438448282824438000000003844E0
:104E900082828282463A028244380000000000008A
:104EA00010100000000010100000000000000000C2
:104EB0001010000000000010102000000000000092
:104EC0000618608060180600000000000000000066
:104ED0000000FE0000FE00000000000000000000D6
:104EE000C0300C020C30C0000000000000384482CA
:104EF0008202040810101000101000000000384456
:104F0000829AAAAAAAAAAA9680423C00000010107F
:104F10001028282844447C4444EE00000000FC4251
:104F20004242427C4242424242FC000000003C4479
:104F30008280808080808282443800000000F844B3
:104F4000424242424242424244F800000000FC44D5
:104F50004240447C4440404244FC00000000FC4489
:104F60004240447C4440404040F000000000344C4B
:104F7000828080808E8484844C3400000000EE4463
:104F80004444447C4444444444EE000000007C100B
:104F90001010101010101010107C000000003E08BF
:104FA0000808080808080888887000000000EE4417
:104FB000484850605048484444EE00000000E0403B
:104FC000404040404040404244FC00000000C64495
:104FD0006C6C6C545454444444EE00000000CE44C5
:104FE00064646454544C4C4C44E400000000384465
:104FF0008282828282828282443800000000F844E9
:10500000424242447840404040E0000000003844C2
:1050100082828282828282BA443C02000000F0488E
:10502000444444487048444444E6000000003C4482
:10503000828040300C0202824478000000007C54E0
:105040009210101010101010103800000000EE44E4
:105050004444444444444444443800000000EE4482
:105060004444442828282810101000000000EE4472
:105070005454545454542828282800000000EE4466
:10508000442828101028284444EE00000000EE4474
:1050900044282828101010101038000000007E440A
:1050A000840808102020408284FC0000001C10109E
:1050B000101010101010101010101C000000EE4402
:1050C0005454FE545454282828280000007010100E
:1050D00010101010101010101010700000304884C4
:1050E00000000000000000000000000000000000C0
:1050F00000000000000000000000FE000040200052
:10510000000000000000000000000000000000009F
:1051100000007884047C84848C7600000000C04009
:10512000404058644242424264580000000000007F
:1051300000003844808080804438000000000C0467
:105140000404344C848484844C3600000000000045
:105150000000788484FC808084780000000018249B
:105160002020F820202020202070000000000000D7
:1051700000003A444478807C82827C000000C04079
:10518000404058644444444444EE00000000101081
:105190000000301010101010103800000000101027
:1051A0000000301010101010109060000000C0407F
:1051B00040405C485060504844EE00000000301011
:1051C0001010101110101010103900000000000015
:1051D0000000ACD29292929292D6000000000000A1
:1051E000000058E44444444444EE00000000000041
:1051F00000003844828282824438000000000000AF
:105200000000D864424242645840E00000000000C0
:105210000000364C8484844C34040E0000000000EE
:1052200000006C30202020202070000000000000D2
:105230000000788884601884447800000000002012
:105240002020F8202020202024180000000000004A
:105250000000C64242424242463A000000000000BE
:105260000000EE4444282828101000000000000030
:105270000000EE4444545428282800000000000098
:105280000000EE442810102844EE0000000000004A
:105290000000EE444428281010A0C00000000000C8
:1052A00000007E448810204284FC0000000C101096
:1052B000101010601010101010100C0000101010C2
:1052C00010101010101010101010100000C020202E
:1052D00020202018202020202020C00000000000D6
:1052E000000000728C0000000000000000000000C0
:1052F00000001FE000003FF000003FF000001FE052
:10530000000180060003C00F0003C00F0003C00FA0
:105310000003C00F0003C00F0003C00F0003C00F45
:105320000003C00F000300030000000000000000A5
:1053300000000000000300030003C00F0003C00FC3
:105340000003C00F0003C00F0003C00F0003C00F15
:105350000003C00F0003C00F0001800600001FE023
:1053600000003FF000003FF000001FE000000000E0
:1053700000000000000000800000018000000380A9
:105380000000078000000780000007800000078001
:1053900000000780000007800000078000000780F1
:1053A00000000780000001800000000000000000F5
:1053B000000000000000018000000780000007805E
:1053C00000000780000007800000078000000780C1
:1053D00000000780000007800000078000000380B5
:1053E00000000180000000800000000000000000BC
:1053F00000001FE000003FF00000FFF00001FFE0B0
:10540000000000060000000F0000000F0000000F69
:105410000000000F0000000F0000000F0000000F50
:105420000000000F00001FE300007FF800007FF87D
:1054300000001FE0000300000003C0000003C000E4
:105440000003C0000003C0000003C0000003C00050
:105450000003C0000003C0000001800000001FF036
:1054600000003FF800003FFC00001FFE00000000AD
:105470000003FF800001FFC00000FFC000007F802C
:10548000000000180000003C0000003C0000003C50
:105490000000003C0000003C0000003C0000003C1C
:1054A0000000003C00007F8C0001FFE00001FFF0E5
:1054B00000007F800000000C0000003C0000003C69
:1054C0000000003C0000003C0000003C0000003CEC
:1054D0000000003C0000003C0000001800007F803D
:1054E0000000FFC00001FFC00003FF8000000000BB
:1054F0000000000000020001000300030003800719
:105500000003C00F0003C00F0003C00F0003C00F53
:105510000003C00F0003C00F0003C00F0003C00F43
:105520000003C00F00031FE300007FF800007FFCB2
:1055300000001FE0000000030000000F0000000F4B
:105540000000000F0000000F0000000F0000000F1F
:105550000000000F0000000F0000000F0000000717
:105560000000000300000001000000000000000037
:1055700000001FFC00003FF800003FF000001FE0AB
:10558000000180000003C0000003C0000003C00051
:105590000003C0000003C0000003C0000003C000FF
:1055A0000003C00000031FE000007FF800007FF848
:1055B00000001FE0000000030000000F0000000FCB
:1055C0000000000F0000000F0000000F0000000F9F
:1055D0000000000F0000000F0000000600003FE088
:1055E00000007FF00000FFF00001FFE0000000007D
:1055F00000001FFC00003FF800003FF000001FE02B
:10560000000180000003C0000003C0000003C000D0
:105610000003C0000003C0000003C0000003C0007E
:105620000003C00000031FE000007FF800007FFCC3
:1056300000001FE0000300030003C00F0003C00FC1
:105640000003C00F0003C00F0003C00F0003C00F12
:105650000003C00F0003C00F0001800600001FE020
:1056600000003FF000003FF000001FE000000000DD
:105670000007FFE00003FFC00001FF880000FF18E3
:10568000000000380000007800000078000000787A
:10569000000000780000007800000078000000782A
:1056A000000000780000001800000000000000006A
:1056B00000000000000000180000007800000078E2
:1056C00000000078000000780000007800000078FA
:1056D000000000780000007800000078000000382A
:1056E000000000180000000800000000000000009A
:1056F00000001FE000003FF000003FF000001FE04E
:10570000000180060003C00F0003C00F0003C00F9C
:105710000003C00F0003C00F0003C00F0003C00F41
:105720000003C00F00031FE300007FF800007FFCB0
:1057300000001FE0000300030003C00F0003C00FC0
:105740000003C00F0003C00F0003C00F0003C00F11
:105750000003C00F0003C00F0001800600001FE01F
:1057600000003FF000003FF000001FE000000000DC
:1057700000001FE000003FF000003FF000001FE0CD
:10578000000180060003C00F0003C00F0003C00F1C
:105790000003C00F0003C00F0003C00F0003C00FC1
:1057A0000003C00F00031FE300007FF800007FFC30
:1057B00000001FE0000000030000000F0000000FC9
:1057C0000000000F0000000F0000000F0000000F9D
:1057D0000000000F0000000F0000000600001FE0A6
:1057E00000003FF000007FF00000FFE0000000003C
:1057F00000000000000000000000000000000000A9
:105800000000000000000000000000000000000098
:105810000000000000000000000000000000000088
:105820000000000000000000000000000000000078
:105830000000000000000000000000000000000068
:105840000000780000007800000078000000780078
:105850000000780000007800000000000000000058
:105860000000000000000000000000000000000038
:105870000000000000000000000000000000000028
:105880000000000000000000000000000000070011
:1058900000000F8000000F8000000F800000070054
:1058A00000000000000000000000000000000000F8
:1058B00000000000000000000000070000000F8052
:1058C00000000F8000000F800000070000000000B3
:1058D00000000000000000000000000000000000C8
:1058E00000000000000000000000000000000000B8
:1058F0000000000000000000000000000007C006DB
:10590000000FE0060000000C0030181800301818D6
:10591000003018300030183000301860003008C0F7
:105920000007C0C0000FE080000000000000000F72
:10593000E0000607C000063018000C3018000C30DC
:10594000180018301800303018003030180060008F
:105950000000C00FE000C007C00000000000000011
:105960000000000000000000000000000000000037
:105970000000000000000000000000000000000027
:1059800000000000000700E0000887FC00088E030C
:1059900000089801800718008000300000003000E7
:1059A0000000700000006000000060000000600067
:1059B0000000600000006000000070000000300087
:1059C00000003000000038000000180100000C0347
:1059D000000007FC000001F00000000000000000D3
:1059E00000000000000000000000000000000000B7
:1059F00000000000000000000000000000000000A7
:105A00000000000000000000000000000000000096
:105A10000000000000000000000000000000000086
:105A2000000000000000000000003FF000007FF0D8
:105A300000007FE00000FFC0000000000000000048
:105A40000000000000000000000000000000000056
:105A50000000000000000000000000000000000046
:105A6000000000000000000000000000000006012F
:105A700026014A015D018801B801EE010B024B02CB
:105A80009302BA0210037003DC031704970427057E
:105A900075052006E006F00600000000000000008A
:105AA00001020304060708090000000001020304C4
:105AB000D05A00080000002074000000AC39000833
:105AC000445B00087400002034180000BC39000852
:105AD0000000000000000000CDCC4C3F00000000A2
